{
  "_format": "hh-sol-artifact-1",
  "contractName": "CoffeePortal",
  "sourceName": "contracts/CoffeePortal.sol",
  "abi": [
    {
      "inputs": [],
      "stateMutability": "payable",
      "type": "constructor"
    },
    {
      "anonymous": false,
      "inputs": [
        {
          "indexed": true,
          "internalType": "address",
          "name": "from",
          "type": "address"
        },
        {
          "indexed": false,
          "internalType": "uint256",
          "name": "timestamp",
          "type": "uint256"
        },
        {
          "indexed": false,
          "internalType": "string",
          "name": "message",
          "type": "string"
        },
        {
          "indexed": false,
          "internalType": "string",
          "name": "name",
          "type": "string"
        }
      ],
      "name": "NewCoffee",
      "type": "event"
    },
    {
      "inputs": [
        {
          "internalType": "string",
          "name": "_message",
          "type": "string"
        },
        {
          "internalType": "string",
          "name": "_name",
          "type": "string"
        },
        {
          "internalType": "uint256",
          "name": "_payAmount",
          "type": "uint256"
        }
      ],
      "name": "buyCoffee",
      "outputs": [],
      "stateMutability": "payable",
      "type": "function"
    },
    {
      "inputs": [],
      "name": "getAllCoffee",
      "outputs": [
        {
          "components": [
            {
              "internalType": "address",
              "name": "giver",
              "type": "address"
            },
            {
              "internalType": "string",
              "name": "message",
              "type": "string"
            },
            {
              "internalType": "string",
              "name": "name",
              "type": "string"
            },
            {
              "internalType": "uint256",
              "name": "payAmount",
              "type": "uint256"
            },
            {
              "internalType": "uint256",
              "name": "timestamp",
              "type": "uint256"
            }
          ],
          "internalType": "struct CoffeePortal.Coffee[]",
          "name": "",
          "type": "tuple[]"
        }
      ],
      "stateMutability": "view",
      "type": "function"
    },
    {
      "inputs": [],
      "name": "getTotalCoffee",
      "outputs": [
        {
          "internalType": "uint256",
          "name": "",
          "type": "uint256"
        }
      ],
      "stateMutability": "view",
      "type": "function"
    },
    {
      "inputs": [],
      "name": "owner",
      "outputs": [
        {
          "internalType": "address payable",
          "name": "",
          "type": "address"
        }
      ],
      "stateMutability": "view",
      "type": "function"
    }
  ],
  "bytecode": "0x60806040526200004f6040518060400160405280600e81526020017f4865792c2049276d2068657265210000000000000000000000000000000000008152506200009660201b620006cc1760201c565b33600160006101000a81548173ffffffffffffffffffffffffffffffffffffffff021916908373ffffffffffffffffffffffffffffffffffffffff1602179055506200022a565b6200013681604051602401620000ad9190620001a3565b6040516020818303038152906040527f41304fac000000000000000000000000000000000000000000000000000000007bffffffffffffffffffffffffffffffffffffffffffffffffffffffff19166020820180517bffffffffffffffffffffffffffffffffffffffffffffffffffffffff83818316178352505050506200013960201b60201c565b50565b60008151905060006a636f6e736f6c652e6c6f679050602083016000808483855afa5050505050565b60006200016f82620001c7565b6200017b8185620001d2565b93506200018d818560208601620001e3565b620001988162000219565b840191505092915050565b60006020820190508181036000830152620001bf818462000162565b905092915050565b600081519050919050565b600082825260208201905092915050565b60005b8381101562000203578082015181840152602081019050620001e6565b8381111562000213576000848401525b50505050565b6000601f19601f8301169050919050565b6111e7806200023a6000396000f3fe60806040526004361061003f5760003560e01c8063441315c5146100445780634839ee3f146100605780638da5cb5b1461008b578063d386beca146100b6575b600080fd5b61005e600480360381019061005991906109e6565b6100e1565b005b34801561006c57600080fd5b5061007561046e565b6040516100829190610de8565b60405180910390f35b34801561009757600080fd5b506100a06104b9565b6040516100ad9190610cc9565b60405180910390f35b3480156100c257600080fd5b506100cb6104df565b6040516100d89190610ce4565b60405180910390f35b600066038d7ea4c68000905080341015610130576040517f08c379a000000000000000000000000000000000000000000000000000000000815260040161012790610dc8565b60405180910390fd5b348214610172576040517f08c379a000000000000000000000000000000000000000000000000000000000815260040161016990610d88565b60405180910390fd5b60016000808282546101849190610f0f565b925050819055506101ca6040518060400160405280600f81526020017f50617961626c65204d53473a202573000000000000000000000000000000000081525034610765565b6102096040518060400160405280601381526020017f506179416d6f756e742076616c75653a2025640000000000000000000000000081525083610765565b6102486040518060400160405280601481526020017f2573206a7573742073656e74206120636f66656500000000000000000000000081525033610801565b60026040518060a001604052803373ffffffffffffffffffffffffffffffffffffffff16815260200186815260200185815260200134815260200142815250908060018154018082558091505060019003906000526020600020906005020160009091909190915060008201518160000160006101000a81548173ffffffffffffffffffffffffffffffffffffffff021916908373ffffffffffffffffffffffffffffffffffffffff16021790555060208201518160010190805190602001906103139291906108c6565b5060408201518160020190805190602001906103309291906108c6565b50606082015181600301556080820151816004015550506000600160009054906101000a900473ffffffffffffffffffffffffffffffffffffffff1673ffffffffffffffffffffffffffffffffffffffff163460405161038f90610cb4565b60006040518083038185875af1925050503d80600081146103cc576040519150601f19603f3d011682016040523d82523d6000602084013e6103d1565b606091505b5050905080610415576040517f08c379a000000000000000000000000000000000000000000000000000000000815260040161040c90610da8565b60405180910390fd5b3373ffffffffffffffffffffffffffffffffffffffff167f5d202edb9ac9aca913189e3c829f7fdbba23859e91379c70ecf7874fe39632a742878760405161045f93929190610e03565b60405180910390a25050505050565b60006104b16040518060400160405280601381526020017f546f74616c20636f666665652073656e743a2000000000000000000000000000815250600054610765565b600054905090565b600160009054906101000a900473ffffffffffffffffffffffffffffffffffffffff1681565b60606002805480602002602001604051908101604052809291908181526020016000905b828210156106c357838290600052602060002090600502016040518060a00160405290816000820160009054906101000a900473ffffffffffffffffffffffffffffffffffffffff1673ffffffffffffffffffffffffffffffffffffffff1673ffffffffffffffffffffffffffffffffffffffff16815260200160018201805461058c90610ff5565b80601f01602080910402602001604051908101604052809291908181526020018280546105b890610ff5565b80156106055780601f106105da57610100808354040283529160200191610605565b820191906000526020600020905b8154815290600101906020018083116105e857829003601f168201915b5050505050815260200160028201805461061e90610ff5565b80601f016020809104026020016040519081016040528092919081815260200182805461064a90610ff5565b80156106975780601f1061066c57610100808354040283529160200191610697565b820191906000526020600020905b81548152906001019060200180831161067a57829003601f168201915b505050505081526020016003820154815260200160048201548152505081526020019060010190610503565b50505050905090565b610762816040516024016106e09190610d06565b6040516020818303038152906040527f41304fac000000000000000000000000000000000000000000000000000000007bffffffffffffffffffffffffffffffffffffffffffffffffffffffff19166020820180517bffffffffffffffffffffffffffffffffffffffffffffffffffffffff838183161783525050505061089d565b50565b6107fd828260405160240161077b929190610d58565b6040516020818303038152906040527f9710a9d0000000000000000000000000000000000000000000000000000000007bffffffffffffffffffffffffffffffffffffffffffffffffffffffff19166020820180517bffffffffffffffffffffffffffffffffffffffffffffffffffffffff838183161783525050505061089d565b5050565b6108998282604051602401610817929190610d28565b6040516020818303038152906040527f319af333000000000000000000000000000000000000000000000000000000007bffffffffffffffffffffffffffffffffffffffffffffffffffffffff19166020820180517bffffffffffffffffffffffffffffffffffffffffffffffffffffffff838183161783525050505061089d565b5050565b60008151905060006a636f6e736f6c652e6c6f679050602083016000808483855afa5050505050565b8280546108d290610ff5565b90600052602060002090601f0160209004810192826108f4576000855561093b565b82601f1061090d57805160ff191683800117855561093b565b8280016001018555821561093b579182015b8281111561093a57825182559160200191906001019061091f565b5b509050610948919061094c565b5090565b5b8082111561096557600081600090555060010161094d565b5090565b600061097c61097784610e6d565b610e48565b90508281526020810184848401111561099457600080fd5b61099f848285610fb3565b509392505050565b600082601f8301126109b857600080fd5b81356109c8848260208601610969565b91505092915050565b6000813590506109e08161119a565b92915050565b6000806000606084860312156109fb57600080fd5b600084013567ffffffffffffffff811115610a1557600080fd5b610a21868287016109a7565b935050602084013567ffffffffffffffff811115610a3e57600080fd5b610a4a868287016109a7565b9250506040610a5b868287016109d1565b9150509250925092565b6000610a718383610c19565b905092915050565b610a8281610f77565b82525050565b610a9181610f65565b82525050565b610aa081610f65565b82525050565b6000610ab182610eae565b610abb8185610ed1565b935083602082028501610acd85610e9e565b8060005b85811015610b095784840389528151610aea8582610a65565b9450610af583610ec4565b925060208a01995050600181019050610ad1565b50829750879550505050505092915050565b6000610b2682610eb9565b610b308185610eed565b9350610b40818560208601610fc2565b610b49816110e5565b840191505092915050565b6000610b5f82610eb9565b610b698185610efe565b9350610b79818560208601610fc2565b610b82816110e5565b840191505092915050565b6000610b9a601b83610efe565b9150610ba5826110f6565b602082019050919050565b6000610bbd601583610efe565b9150610bc88261111f565b602082019050919050565b6000610be0602a83610efe565b9150610beb82611148565b604082019050919050565b6000610c03600083610ee2565b9150610c0e82611197565b600082019050919050565b600060a083016000830151610c316000860182610a88565b5060208301518482036020860152610c498282610b1b565b91505060408301518482036040860152610c638282610b1b565b9150506060830151610c786060860182610c96565b506080830151610c8b6080860182610c96565b508091505092915050565b610c9f81610fa9565b82525050565b610cae81610fa9565b82525050565b6000610cbf82610bf6565b9150819050919050565b6000602082019050610cde6000830184610a79565b92915050565b60006020820190508181036000830152610cfe8184610aa6565b905092915050565b60006020820190508181036000830152610d208184610b54565b905092915050565b60006040820190508181036000830152610d428185610b54565b9050610d516020830184610a97565b9392505050565b60006040820190508181036000830152610d728185610b54565b9050610d816020830184610ca5565b9392505050565b60006020820190508181036000830152610da181610b8d565b9050919050565b60006020820190508181036000830152610dc181610bb0565b9050919050565b60006020820190508181036000830152610de181610bd3565b9050919050565b6000602082019050610dfd6000830184610ca5565b92915050565b6000606082019050610e186000830186610ca5565b8181036020830152610e2a8185610b54565b90508181036040830152610e3e8184610b54565b9050949350505050565b6000610e52610e63565b9050610e5e8282611027565b919050565b6000604051905090565b600067ffffffffffffffff821115610e8857610e876110b6565b5b610e91826110e5565b9050602081019050919050565b6000819050602082019050919050565b600081519050919050565b600081519050919050565b6000602082019050919050565b600082825260208201905092915050565b600081905092915050565b600082825260208201905092915050565b600082825260208201905092915050565b6000610f1a82610fa9565b9150610f2583610fa9565b9250827fffffffffffffffffffffffffffffffffffffffffffffffffffffffffffffffff03821115610f5a57610f59611058565b5b828201905092915050565b6000610f7082610f89565b9050919050565b6000610f8282610f89565b9050919050565b600073ffffffffffffffffffffffffffffffffffffffff82169050919050565b6000819050919050565b82818337600083830152505050565b60005b83811015610fe0578082015181840152602081019050610fc5565b83811115610fef576000848401525b50505050565b6000600282049050600182168061100d57607f821691505b6020821081141561102157611020611087565b5b50919050565b611030826110e5565b810181811067ffffffffffffffff8211171561104f5761104e6110b6565b5b80604052505050565b7f4e487b7100000000000000000000000000000000000000000000000000000000600052601160045260246000fd5b7f4e487b7100000000000000000000000000000000000000000000000000000000600052602260045260246000fd5b7f4e487b7100000000000000000000000000000000000000000000000000000000600052604160045260246000fd5b6000601f19601f8301169050919050565b7f44697374696e637420616d6f756e747320776572652073656e742e0000000000600082015250565b7f4661696c656420746f2073656e6420616d6f756e740000000000000000000000600082015250565b7f496e737566696369656e7420616d6f756e7420666f722061206d696e696d756d60008201527f2073656c65637465642e00000000000000000000000000000000000000000000602082015250565b50565b6111a381610fa9565b81146111ae57600080fd5b5056fea2646970667358221220e9e4af97865c7791f4ca444369b082c00c6d71270f79f6cf2ef41c4a718638d364736f6c63430008040033",
  "linkReferences": {},
  "deployedLinkReferences": {}
}