{
  "_format": "hh-sol-artifact-1",
  "contractName": "CoffeePortal",
  "sourceName": "contracts/CoffeePortal.sol",
  "abi": [
    {
      "inputs": [],
      "stateMutability": "payable",
      "type": "constructor"
    },
    {
      "anonymous": false,
      "inputs": [
        {
          "indexed": true,
          "internalType": "address",
          "name": "from",
          "type": "address"
        },
        {
          "indexed": false,
          "internalType": "uint256",
          "name": "timestamp",
          "type": "uint256"
        },
        {
          "indexed": false,
          "internalType": "string",
          "name": "message",
          "type": "string"
        },
        {
          "indexed": false,
          "internalType": "string",
          "name": "name",
          "type": "string"
        }
      ],
      "name": "NewCoffee",
      "type": "event"
    },
    {
      "inputs": [
        {
          "internalType": "string",
          "name": "_message",
          "type": "string"
        },
        {
          "internalType": "string",
          "name": "_name",
          "type": "string"
        },
        {
          "internalType": "uint256",
          "name": "_payAmount",
          "type": "uint256"
        }
      ],
      "name": "buyCoffee",
      "outputs": [],
      "stateMutability": "payable",
      "type": "function"
    },
    {
      "inputs": [],
      "name": "getAllCoffee",
      "outputs": [
        {
          "components": [
            {
              "internalType": "address",
              "name": "giver",
              "type": "address"
            },
            {
              "internalType": "string",
              "name": "message",
              "type": "string"
            },
            {
              "internalType": "string",
              "name": "name",
              "type": "string"
            },
            {
              "internalType": "uint256",
              "name": "payAmount",
              "type": "uint256"
            },
            {
              "internalType": "uint256",
              "name": "timestamp",
              "type": "uint256"
            }
          ],
          "internalType": "struct CoffeePortal.Coffee[]",
          "name": "",
          "type": "tuple[]"
        }
      ],
      "stateMutability": "view",
      "type": "function"
    },
    {
      "inputs": [],
      "name": "getTotalCoffee",
      "outputs": [
        {
          "internalType": "uint256",
          "name": "",
          "type": "uint256"
        }
      ],
      "stateMutability": "view",
      "type": "function"
    },
    {
      "inputs": [],
      "name": "owner",
      "outputs": [
        {
          "internalType": "address payable",
          "name": "",
          "type": "address"
        }
      ],
      "stateMutability": "view",
      "type": "function"
    }
  ],
  "bytecode": "0x60806040526200004f6040518060400160405280600e81526020017f4865792c2049276d2068657265210000000000000000000000000000000000008152506200009660201b6200068d1760201c565b33600160006101000a81548173ffffffffffffffffffffffffffffffffffffffff021916908373ffffffffffffffffffffffffffffffffffffffff1602179055506200022a565b6200013681604051602401620000ad9190620001a3565b6040516020818303038152906040527f41304fac000000000000000000000000000000000000000000000000000000007bffffffffffffffffffffffffffffffffffffffffffffffffffffffff19166020820180517bffffffffffffffffffffffffffffffffffffffffffffffffffffffff83818316178352505050506200013960201b60201c565b50565b60008151905060006a636f6e736f6c652e6c6f679050602083016000808483855afa5050505050565b60006200016f82620001c7565b6200017b8185620001d2565b93506200018d818560208601620001e3565b620001988162000219565b840191505092915050565b60006020820190508181036000830152620001bf818462000162565b905092915050565b600081519050919050565b600082825260208201905092915050565b60005b8381101562000203578082015181840152602081019050620001e6565b8381111562000213576000848401525b50505050565b6000601f19601f8301169050919050565b6111a8806200023a6000396000f3fe60806040526004361061003f5760003560e01c8063441315c5146100445780634839ee3f146100605780638da5cb5b1461008b578063d386beca146100b6575b600080fd5b61005e600480360381019061005991906109a7565b6100e1565b005b34801561006c57600080fd5b5061007561042f565b6040516100829190610da9565b60405180910390f35b34801561009757600080fd5b506100a061047a565b6040516100ad9190610c8a565b60405180910390f35b3480156100c257600080fd5b506100cb6104a0565b6040516100d89190610ca5565b60405180910390f35b600066038d7ea4c68000905080341015610130576040517f08c379a000000000000000000000000000000000000000000000000000000000815260040161012790610d89565b60405180910390fd5b348214610172576040517f08c379a000000000000000000000000000000000000000000000000000000000815260040161016990610d49565b60405180910390fd5b60016000808282546101849190610ed0565b925050819055506101ca6040518060400160405280600f81526020017f50617961626c65204d53473a202573000000000000000000000000000000000081525034610726565b6102096040518060400160405280601481526020017f2573206a7573742073656e74206120636f666565000000000000000000000000815250336107c2565b60026040518060a001604052803373ffffffffffffffffffffffffffffffffffffffff16815260200186815260200185815260200134815260200142815250908060018154018082558091505060019003906000526020600020906005020160009091909190915060008201518160000160006101000a81548173ffffffffffffffffffffffffffffffffffffffff021916908373ffffffffffffffffffffffffffffffffffffffff16021790555060208201518160010190805190602001906102d4929190610887565b5060408201518160020190805190602001906102f1929190610887565b50606082015181600301556080820151816004015550506000600160009054906101000a900473ffffffffffffffffffffffffffffffffffffffff1673ffffffffffffffffffffffffffffffffffffffff163460405161035090610c75565b60006040518083038185875af1925050503d806000811461038d576040519150601f19603f3d011682016040523d82523d6000602084013e610392565b606091505b50509050806103d6576040517f08c379a00000000000000000000000000000000000000000000000000000000081526004016103cd90610d69565b60405180910390fd5b3373ffffffffffffffffffffffffffffffffffffffff167f5d202edb9ac9aca913189e3c829f7fdbba23859e91379c70ecf7874fe39632a742878760405161042093929190610dc4565b60405180910390a25050505050565b60006104726040518060400160405280601381526020017f546f74616c20636f666665652073656e743a2000000000000000000000000000815250600054610726565b600054905090565b600160009054906101000a900473ffffffffffffffffffffffffffffffffffffffff1681565b60606002805480602002602001604051908101604052809291908181526020016000905b8282101561068457838290600052602060002090600502016040518060a00160405290816000820160009054906101000a900473ffffffffffffffffffffffffffffffffffffffff1673ffffffffffffffffffffffffffffffffffffffff1673ffffffffffffffffffffffffffffffffffffffff16815260200160018201805461054d90610fb6565b80601f016020809104026020016040519081016040528092919081815260200182805461057990610fb6565b80156105c65780601f1061059b576101008083540402835291602001916105c6565b820191906000526020600020905b8154815290600101906020018083116105a957829003601f168201915b505050505081526020016002820180546105df90610fb6565b80601f016020809104026020016040519081016040528092919081815260200182805461060b90610fb6565b80156106585780601f1061062d57610100808354040283529160200191610658565b820191906000526020600020905b81548152906001019060200180831161063b57829003601f168201915b5050505050815260200160038201548152602001600482015481525050815260200190600101906104c4565b50505050905090565b610723816040516024016106a19190610cc7565b6040516020818303038152906040527f41304fac000000000000000000000000000000000000000000000000000000007bffffffffffffffffffffffffffffffffffffffffffffffffffffffff19166020820180517bffffffffffffffffffffffffffffffffffffffffffffffffffffffff838183161783525050505061085e565b50565b6107be828260405160240161073c929190610d19565b6040516020818303038152906040527f9710a9d0000000000000000000000000000000000000000000000000000000007bffffffffffffffffffffffffffffffffffffffffffffffffffffffff19166020820180517bffffffffffffffffffffffffffffffffffffffffffffffffffffffff838183161783525050505061085e565b5050565b61085a82826040516024016107d8929190610ce9565b6040516020818303038152906040527f319af333000000000000000000000000000000000000000000000000000000007bffffffffffffffffffffffffffffffffffffffffffffffffffffffff19166020820180517bffffffffffffffffffffffffffffffffffffffffffffffffffffffff838183161783525050505061085e565b5050565b60008151905060006a636f6e736f6c652e6c6f679050602083016000808483855afa5050505050565b82805461089390610fb6565b90600052602060002090601f0160209004810192826108b557600085556108fc565b82601f106108ce57805160ff19168380011785556108fc565b828001600101855582156108fc579182015b828111156108fb5782518255916020019190600101906108e0565b5b509050610909919061090d565b5090565b5b8082111561092657600081600090555060010161090e565b5090565b600061093d61093884610e2e565b610e09565b90508281526020810184848401111561095557600080fd5b610960848285610f74565b509392505050565b600082601f83011261097957600080fd5b813561098984826020860161092a565b91505092915050565b6000813590506109a18161115b565b92915050565b6000806000606084860312156109bc57600080fd5b600084013567ffffffffffffffff8111156109d657600080fd5b6109e286828701610968565b935050602084013567ffffffffffffffff8111156109ff57600080fd5b610a0b86828701610968565b9250506040610a1c86828701610992565b9150509250925092565b6000610a328383610bda565b905092915050565b610a4381610f38565b82525050565b610a5281610f26565b82525050565b610a6181610f26565b82525050565b6000610a7282610e6f565b610a7c8185610e92565b935083602082028501610a8e85610e5f565b8060005b85811015610aca5784840389528151610aab8582610a26565b9450610ab683610e85565b925060208a01995050600181019050610a92565b50829750879550505050505092915050565b6000610ae782610e7a565b610af18185610eae565b9350610b01818560208601610f83565b610b0a816110a6565b840191505092915050565b6000610b2082610e7a565b610b2a8185610ebf565b9350610b3a818560208601610f83565b610b43816110a6565b840191505092915050565b6000610b5b601b83610ebf565b9150610b66826110b7565b602082019050919050565b6000610b7e601583610ebf565b9150610b89826110e0565b602082019050919050565b6000610ba1602a83610ebf565b9150610bac82611109565b604082019050919050565b6000610bc4600083610ea3565b9150610bcf82611158565b600082019050919050565b600060a083016000830151610bf26000860182610a49565b5060208301518482036020860152610c0a8282610adc565b91505060408301518482036040860152610c248282610adc565b9150506060830151610c396060860182610c57565b506080830151610c4c6080860182610c57565b508091505092915050565b610c6081610f6a565b82525050565b610c6f81610f6a565b82525050565b6000610c8082610bb7565b9150819050919050565b6000602082019050610c9f6000830184610a3a565b92915050565b60006020820190508181036000830152610cbf8184610a67565b905092915050565b60006020820190508181036000830152610ce18184610b15565b905092915050565b60006040820190508181036000830152610d038185610b15565b9050610d126020830184610a58565b9392505050565b60006040820190508181036000830152610d338185610b15565b9050610d426020830184610c66565b9392505050565b60006020820190508181036000830152610d6281610b4e565b9050919050565b60006020820190508181036000830152610d8281610b71565b9050919050565b60006020820190508181036000830152610da281610b94565b9050919050565b6000602082019050610dbe6000830184610c66565b92915050565b6000606082019050610dd96000830186610c66565b8181036020830152610deb8185610b15565b90508181036040830152610dff8184610b15565b9050949350505050565b6000610e13610e24565b9050610e1f8282610fe8565b919050565b6000604051905090565b600067ffffffffffffffff821115610e4957610e48611077565b5b610e52826110a6565b9050602081019050919050565b6000819050602082019050919050565b600081519050919050565b600081519050919050565b6000602082019050919050565b600082825260208201905092915050565b600081905092915050565b600082825260208201905092915050565b600082825260208201905092915050565b6000610edb82610f6a565b9150610ee683610f6a565b9250827fffffffffffffffffffffffffffffffffffffffffffffffffffffffffffffffff03821115610f1b57610f1a611019565b5b828201905092915050565b6000610f3182610f4a565b9050919050565b6000610f4382610f4a565b9050919050565b600073ffffffffffffffffffffffffffffffffffffffff82169050919050565b6000819050919050565b82818337600083830152505050565b60005b83811015610fa1578082015181840152602081019050610f86565b83811115610fb0576000848401525b50505050565b60006002820490506001821680610fce57607f821691505b60208210811415610fe257610fe1611048565b5b50919050565b610ff1826110a6565b810181811067ffffffffffffffff821117156110105761100f611077565b5b80604052505050565b7f4e487b7100000000000000000000000000000000000000000000000000000000600052601160045260246000fd5b7f4e487b7100000000000000000000000000000000000000000000000000000000600052602260045260246000fd5b7f4e487b7100000000000000000000000000000000000000000000000000000000600052604160045260246000fd5b6000601f19601f8301169050919050565b7f44697374696e637420616d6f756e747320776572652073656e742e0000000000600082015250565b7f4661696c656420746f2073656e6420616d6f756e740000000000000000000000600082015250565b7f496e737566696369656e7420616d6f756e7420666f722061206d696e696d756d60008201527f2073656c65637465642e00000000000000000000000000000000000000000000602082015250565b50565b61116481610f6a565b811461116f57600080fd5b5056fea2646970667358221220c34040e06534649a99326b5dd7fe5cd94217ff257020b0af7fccbe42fd7219a464736f6c63430008040033",
  "linkReferences": {},
  "deployedLinkReferences": {}
}